:020000040800F2
:10000000302D00200D030008B13F0008FB3B000825
:100010005D3E0008751E00083D6E000800000000EF
:100020000000000000000000000000007502000851
:10003000AF22000800000000B9020008C56C0008EB
:1000400027030008270300082703000827030008E8
:1000500027030008270300082703000827030008D8
:1000600027030008270300082703000827030008C8
:100070002703000827030008270300087922000847
:1000800027030008270300082703000827030008A8
:100090002703000827030008270300082703000898
:1000A00027030008416D0008270300082703000804
:1000B00027030008270300084D6D000827030008E8
:1000C0002703000827030008270300082703000868
:1000D00069660008270300082703000827030008B3
:1000E00027030008270300082703000800F002F890
:1000F00000F0B0F80AA090E8000C82448344AAF112
:100100000107DA4501D100F0A5F8AFF2090EBAE80F
:100110000F0013F0010F18BFFB1A43F0010318473B
:100120002CD500004CD500000A444FF0000C10F80C
:10013000013B13F0070408BF10F8014B1D1108BF65
:1001400010F8015B641E05D010F8016B641E01F805
:10015000016BF9D113F0080F1EBF10F8014BAD1C55
:100160000C1B09D16D1E58BF01F801CBFAD505E073
:1001700014F8016B01F8016B6D1EF9D59142D6D3CD
:10018000704700000023002400250026103A28BFF5
:1001900078C1FBD8520728BF30C148BF0B607047F9
:1001A0006E2900F08B83702900F0E386662908F041
:1001B0007483652908F07183672908F06E836129CB
:1001C00008F06D8303681B0A28BF41F0800169298C
:1001D00000F0FE80642900F0FB80752900F0F880B3
:1001E0006F2900F07086782900F0AF86E92900F0C9
:1001F0000B86E42900F00886F52900F00586EF2932
:1002000000F06D86F82900F0AE860368DB0928BF90
:1002100041F08001632901F0C980732901F0CE808B
:10022000E32901F0D980F32901F0DE800020704736
:100230001FB500F0A9FE04000020002107F014FA09
:10024000401C60600020002107F0F8F9E0601FBD4D
:1002500010B510BD01F05EF91146FFF7E9FF07F098
:10026000DDF801F085F903B4FFF7F2FF03BC01F0FC
:1002700089F90000224B19680868B0E8F00F80F394
:100280000988BFF36F8F4FF0000080F311884EF0A4
:100290000D0E70470000000006480068006880F3FB
:1002A000088862B661B6BFF34F8FBFF36F8F00DF70
:1002B00000BF00BF08ED00E0EFF30980BFF36F8FD0
:1002C0000F4B1A6820E9F00F106008B54FF050008E
:1002D00080F31188BFF34F8FBFF36F8F07F0F4F8EF
:1002E0004FF0000080F31188BDE8084019680868E5
:1002F000B0E8F00F80F30988BFF36F8F704700BF3D
:1003000014000020EFF30580704700000948804783
:1003100009480047FEE7FEE7FEE7FEE7FEE7FEE7E7
:10032000FEE7FEE7FEE7FEE704480549054A064BFF
:10033000704700003D6D0008ED00000830270020E8
:10034000302D002030290020302900201CB50C461B
:10035000064B7B4469460090204600F0D6FC0446DC
:100360000020694600F0E4FC20461CBDDB090000CB
:100370007CB51D4616460C00009001D02044401E5E
:10038000074B7B442A4669460190304600F0BDFC8D
:1003900005461CB10020694600F0CAFC28467CBD19
:1003A000B50900000FB41CB5084B06AA7B4469468A
:1003B0000090059800F0A9FC04460020694600F072
:1003C000B7FC20461CBC5DF814FB0000810900004E
:1003D0002DE9F0410646002410687529314616A51E
:1003E00010D000F0D7F9002802DA404213A507E048
:1003F00031688A0701D512A502E0490704D511A585
:10040000012401E000F0CFF900210A2206F12407BF
:1004100009E0B0FBF2FCB0FBF2F302FB1C00303051
:1004200078541846491C0028F3D123462A46304602
:10043000BDE8F04100F0E9B9000000002D00000027
:100440002B000000200000002DE9F05F89460446E3
:100450004FF0000ADFF874B1FB44C0F820A020463A
:10046000E1688847002874D0252806D0D4E9012106
:100470009047206A401C2062F1E700265F46204634
:10048000E16888472028054607DB312D05D2781919
:1004900010F8200C08B10643F1E7B00701D526F0AB
:1004A0000406C4F81CA00027C4F818A02A2D09D0FF
:1004B000284606F04BFD38B304EB8708303DC8F8FA
:1004C000185019E059F8041B204604EB870291618B
:1004D000E1688847012F054618D1E069002820DA35
:1004E00026F020061DE0D8F8180000EB800005EB90
:1004F00040003038C8F818002046E16888470546B3
:1005000006F024FD0028EED1012F0AD02E2D08D1AF
:100510002046E16888477F1C0546022F46F02006EA
:10052000C4DBA069002803DA404246F00106A0615E
:10053000F00701D026F010066C2D0BD0682D09D0E5
:100540004C2D39D06A2D35D0742D35D07A2D33D03D
:1005500016E038E0E1682F4620468847B842054655
:1005600009D16C2F26D04FF48060E1680643204605
:100570008847054604E06C2F1AD04FF4807006437C
:100580000DB3A5F14100192802D8203546F40066C4
:100590004A462946204626604E46FFF701FE80B1B6
:1005A00001280BD0F61D26F0070000F1080956E7D8
:1005B0004020E4E78020D8E70020D6E706F10409D0
:1005C0004DE7284652E7206ABDE8F09F4CCC00007A
:1005D00010B5431C02E010F8011B71B18107FAD17C
:1005E0004FF0013202C88C1A8C4314EAC211F9D0C0
:1005F000C01A0A0603D0C01E10BDC01A10BD0A04DE
:1006000001D0801E10BD0902FCD0401E10BD10B5E7
:10061000203AC0F00B80B1E81850203AA0E81850FA
:10062000B1E81850A0E81850BFF4F5AF5FEA027CBB
:1006300024BFB1E81850A0E8185044BF18C918C02A
:10064000BDE810405FEA827C24BF51F8043B40F8CB
:10065000043B08BF7047D20728BF31F8023B48BFB0
:1006600011F8012B28BF20F8023B48BF00F8012BEE
:1006700070474FF0000200B5134694469646203965
:1006800022BFA0E80C50A0E80C50B1F12001BFF44B
:10069000F7AF090728BFA0E80C5048BF0CC05DF8B1
:1006A00004EB890028BF40F8042B08BF704748BFFF
:1006B00020F8022B11F0804F18BF00F8012B704773
:1006C0004FF0013C50F8042B51F8043B9A4221D1E1
:1006D000A2EB0C03934313EACC1317D150F8042B6D
:1006E00051F8043B9A4215D1A2EB0C03934313EA51
:1006F000CC130BD150F8042B51F8043B9A4209D18A
:10070000A2EB0C03934313EACC13DBD04FF00000B1
:10071000704700BFD01A01BAB1FA81F101F0180197
:1007200022FA01F0CB40C1F12001DBB2C0B2C01A05
:100730002CFA01F3D11A914311EAC311E6D17047A3
:1007400070477047704770B5044685690068C106F8
:1007500001D5302600E02026C00707D070BDD4E9BF
:10076000012130469047206A401C20626D1EF6D55C
:1007700070BD70B5044685690078C00707D170BDAB
:10078000D4E9012120209047206A401C20626D1E80
:10079000F6D570BD09684A0501D540B27047C90554
:1007A000FCD500B2704709684A0501D5C0B2704750
:1007B000C905FCD580B2704770B50C460546012AC4
:1007C00005D02878800600D5EA69002302E00123DD
:1007D00005E05B1C934202D2E05C0028F9D1A869D5
:1007E000E618C01AA861286A184428622846FFF74C
:1007F000AAFF04E0D5E9012114F8010B9047B442A7
:10080000F8D32846FFF7B5FF70BD2DE9F0470D4638
:1008100099469246044600F124080168880604D5EA
:10082000E06921F01001216000E00120A84201DD13
:10083000471B00E00027A1697A1902EB0900081A9A
:10084000A0612078C00602D42046FFF77CFF002676
:1008500008E0D4E901211AF806009047206A401CFC
:10086000761C20624E45F4DB2078C0060AD520466F
:10087000FFF769FF06E0D4E9012130209047206AA4
:10088000401C2062381EA7F10107F4DC07E0D4E920
:10089000012118F805009047206A401C2062281E9C
:1008A000A5F10105F3DC2046FFF763FF2078000681
:1008B00002D50220BDE8F0870120FBE7116802683D
:1008C000006A530501D508700AE0D30501D50880F8
:1008D00006E0130603D5C217C1E9000200E0086074
:1008E0000120704770472DE9FF4F0C461E464FF020
:1008F000FF378BB0D2E90001DDF860800A908A46AC
:10090000C1F30A5505B93D46002108464FF00000E5
:10091000BAF1000F00F4400005DA00EB80004FF45C
:10092000400101EA50004FEA9059B9F1010F00DD92
:10093000B9460A9850EA4A000ED044F61050A5F283
:10094000FF3545432F14B8F1000F1ED07542291E04
:100950001EDDC9F100021CE0B8F1010F4FF00000EC
:1009600001D0302103E0F24305E02154401CB042A5
:10097000FBDB30460022002121540B99C1F808808E
:10098000C1E900200FB0BDE8F08FBD1B6D1CDEE794
:100990004A4600DA694206A800F02AFD06AB93E851
:1009A000070003AB83E8070050460A9900F0F1FD09
:1009B0008DE80700A0F500501F3800900398002D27
:1009C00009DD42F21F014A46084403A90390684624
:1009D00001F050F808E0A0F500504A461F3803A97E
:1009E0000390684601F05AF88DE807000004000CF7
:1009F00003D04FF0FF30410800E01046B8F1000F7F
:100A000003D00022009215461EE0751E05D400F0AA
:100A1000BFFA303262556D1EF9D5B3460122084344
:100A200002D000227F1C04E02078302801D100226F
:100A30007F1E002A099786D01DE0112D07DA00F0ED
:100A4000A7FA303262556D1C50EA0102F5D1084315
:100A500002D00098C8B10EE00021681E05E0235CBA
:100A6000625C63542254401E491C8142F7DBAB4652
:100A7000A81B401E0990002004F80B000B98099A4F
:100A8000C0F80880C0E9002B7CE711264FF0000871
:100A900059E72DE9F04F88460446D21D22F00701A0
:100AA00091B0D1E90001CDE90A0106F0C8F902468A
:100AB0000B98C00F01D02D2007E02068810701D5D9
:100AC0002B2002E0202101EAC000032A099001D076
:100AD000072A05DB03464146204600F01DFC0BE1DA
:100AE0002078800601D5E06900E00620B8F1650FA6
:100AF000814606D0B8F1660F18D0B8F1670F70D1F3
:100B000031E00020B9F1110F009001DB112301E069
:100B100009F101030AAA01A90CA8FFF7E4FEDDE927
:100B20000C70002609F10105834647E001204B4681
:100B300000904FF000470AAA01A90CA8FFF7D3FEC6
:100B4000DDE90DB00C995D46002610B909F10100F0
:100B50000D18B9EB050003D4C0F1FF3609F101050A
:100B6000A5EB09002BE0B9F1010F01DA4FF0010903
:100B70000020B9F1110F0090484601DD112300E07B
:100B800003460AAA01A90CA8FFF7ADFEDDE90C7027
:100B90004D4600268346207800070AD4AB4500DA8C
:100BA0005D4601A8012D04DD411911F8011C302911
:100BB00007D04F4502DA17F1040F04DA012082460C
:100BC0000FE06D1EEEE7002F02DCED1B3E4403E05C
:100BD000781CA84200DD7D1CB81B00F1010A4FF013
:100BE00000472078000703D4AA4501DB4FF0FF3A05
:100BF0000021B7F1004F0DF143088DF8431024D0C8
:100C000002202B23002F01DA7F422D230A21021E0E
:100C1000A0F1010000DC5FB197FBF1FC97FBF1F262
:100C200001FB1C7C17460CF1300C08F801CDEEE7F7
:100C3000A8F1010003702188090501D5452100E0D4
:100C40006521A0F1010800F8011C09980FA9A1EB8A
:100C50000807FF1D00B10120411901EBEA70A169ED
:100C60003844081A401EA0612078C00602D42046ED
:100C7000FFF769FD099828B1D4E901219047206A5E
:100C8000401C20622078C00622D52046FFF75BFD7D
:100C90001EE0002E04DBB34502DD01A8805D00E00C
:100CA0003020D4E901219047206A401C2062761C44
:100CB000AAF101005FEA000A0AD100F065F9C068F4
:100CC0000168405CD4E901219047206A401C206201
:100CD000281EA5F10105DCDC07E0D4E9012118F8A4
:100CE000010B9047206A401C2062381EA7F10107C3
:100CF000F3DC2046FFF73DFD032011B043E6000082
:100D000001694A1C02610878704700B58FB0CDE9CF
:100D100001310021059105497944CDE903101146BF
:100D20006846FFF791FB0FB000BD0000E5FFFFFF35
:100D30000A6802F8010B0A607047D1E900239A4261
:100D400002D2531C0B601070704700002DE9FF5F4A
:100D500015468A460446DFF8AC80F8440027D8E9F7
:100D600000103E46CDE9001010E03AF816106A4631
:100D700002A800F0ABFB411C07D02178890603D5FF
:100D8000E269391891420DD80744761C2078800614
:100D900002D5E069B84205DDAE42E6DB3AF816005E
:100DA0000028E2D1A069C01BA0612046FFF7CBFC60
:100DB000D8E90010CDE90010002017E03AF818102B
:100DC0006A4602A800F082FBB0F1FF3F81460BD0DB
:100DD00000250DF1080B05E0D4E901211BF8050001
:100DE00090476D1C4D45F7D308F10100B042804695
:100DF000E4DB206A384420622046FFF7BAFCBDE8F5
:100E0000FF9F00005EC300002DE9F0418046D21D27
:100E100022F007020025D2E90002F52915A614D018
:100E2000011E72F1000106DA0023D0EB030063EB30
:100E3000020211A608E0D8F800108B0701D50FA612
:100E400002E0490701D50EA601251146002408F14C
:100E5000240704E000F09CF830323A55641C50EA54
:100E60000102F7D12B46324621464046BDE8F0410B
:100E7000FFF7CBBC000000002D0000002B0000009D
:100E80002000000030B4002100F1240408E002F04A
:100E90000705D208303542EA4372DB086554491C25
:100EA00052EA0305F3D10468002310A2250707D5F1
:100EB000A40600D421B1C46901230DA2641EC4613B
:100EC00030BCFFF7A2BC10B5044621461068FFF7FE
:100ED0006AFC02462046BDE810400023D2E7D21D3E
:100EE00022F00701D1E90023CCE700000000000058
:100EF00030000000F0B40D460188090502D5214CF0
:100F00007C4402E01F4C7C440E34002100F1240696
:100F100008E002F00F071209E75D42EA03721B09BD
:100F20007754491C52EA0307F3D1027800231207D1
:100F300004D5702D06D009B1022311342246F0BC2D
:100F4000FFF763BC01231034F8E770B504460D4683
:100F500021461068FFF727FC024629462046BDE8D7
:100F600070400023C6E7D21D22F00703D3E9002317
:100F7000C0E70368126843F0200303600823C361DD
:100F80000023B7E7C0C1000000487047EC260020EE
:100F900030B5B0F10A024FEA900E71F100034EEA4B
:100FA000817EB0EB0E0061EB91014FEA101E4EEA1C
:100FB000017E10EB0E0041EB11114FEA102E4EEAAC
:100FC000016E10EB0E0041EB11214FEA104E4EEA7C
:100FD000014E10EB0E0041EB1141401841F10001B0
:100FE0004FEAD00040EA41704FEAD10110EB800592
:100FF0004FEA810444EA907444EB01046D1944EB18
:101000000404521BA3414FF0000348BF0A3200D52D
:1010100030BD401C41F1000130BD00002DE9F04F12
:1010200004460D46D21D22F0070089B0D0E9009792
:101030004846394605F003FF0246F80F01D02D233C
:1010400007E02068810701D52B2302E0202101EA77
:10105000C0038DF820300BB1012000E00020032AEE
:10106000824601D0072A04DB2946204600F054F9C5
:101070003FE12078800601D40D2500E0E569C7F343
:101080000A560D2D49DA00214FEA175B08464FF04A
:101090000000002F00F4400007DA00EB80004FF45E
:1010A000400100EBD07001EA60008115012901DDEB
:1010B0004FF0FF3100224FEA850CBCF1180F06D328
:1010C0001346ACF118004FF08052C24003E04FF4D9
:1010D000801323FA0CF30CF10C0CBCF1200F04D399
:1010E000ACF1200C09FA0CF001E007FA0CF0002931
:1010F0004FF0004801DD18B90FE00ED140450CD388
:1011000019EB02095F4121B9404502D19F4329EA09
:101110000209BBEB175F00D0761C2088000502D5C2
:101120007B48784402E07A487844193808AA30238A
:1011300002F80A30037C0AF10101002E0AF1020ACA
:1011400053546A4602DC4FF0300101E04FF03101A8
:101150004FF001088DF8001002D0A6F2FF3603E030
:1011600059EA470100D06B4E002D02DC21780907B7
:1011700004D54FF002082E218DF80110C44600213D
:101180000BE0C7F303433F01C35C491C6D1E02F82B
:101190000830052908F1010801DA002DF1DC0021F1
:1011A0000CE000EB1973491C1B786D1E082902F82E
:1011B00008304FEA091908F1010801DA002DF0DCC6
:1011C00021688B0602D516E0A8F10108E04505DD8F
:1011D00002EB080313F8013C302BF5D0B8F1000FF7
:1011E00009DD02EB080313F8013C2E2B03D109079C
:1011F00001D4A8F10108002D05DD3E2102F80810F8
:101200006D1E08F10108407C002E02F8080008F16C
:10121000010804DA2D20764202F8080002E02B20B3
:1012200002F808000A214FF47A70864208F101089A
:101230000BDB96FBF0F3303302F8083096FBF0F34B
:1012400008F1010800FB136601E0642E0CDB64204A
:1012500096FBF0F3303302F8083096FBF0F308F118
:10126000010800FB136601E00A2E06DB96FBF1F095
:10127000303002F8080008F1010896FBF1F001FB9C
:101280001060303002F80800A16908F1010808EB8D
:10129000050202EB0A00081AA0612078C00602D4F9
:1012A0002046FFF750FA216A08AE01EB0A002062DF
:1012B00004E0D4E9012116F8010B9047BAF1010AC4
:1012C000F7D22078C00602D52046FFF73CFA6E46DA
:1012D00009E016F8010B3E280FD0D4E90121904710
:1012E000206A401C2062B8F10108F2D22046FFF7C4
:1012F00040FA09B00320BDE8F08F206A284420623C
:1013000003E0D4E90121302090476D1EEBD3F8E7CC
:101310007DC0000002FCFFFF2DE9F0411F4604469E
:1013200003260168072A01F4006004DB08B116A552
:1013300005E016A503E008B115A500E015A521F00C
:1013400010002060A069C01EA0610FB1401EA06106
:101350002046FFF7F8F94FB1D4E90121384690470C
:10136000206A401C2062C01C206206E0206AFAE766
:10137000D4E9012115F8010B9047761EF8D22046DA
:10138000FFF7F7F9BDE8F0814E414E006E616E0047
:10139000494E4600696E660010B5436913B1AFF35C
:1013A000008001E0FFF708FA012010BD127800F17B
:1013B00024010A7000224A700122EDE711684FF003
:1013C000FF32E9E710B5436913B1AFF3008001E0E4
:1013D000FFF7BCFC012010BD128800F124018284BB
:1013E0000022C2840122EDE711684FF0FF32E9E7E5
:1013F0002DE9F047814616468AB0334878440DC837
:101400008DE80D0030487844801C03AC0DC884E89A
:101410000D0041F69B300844372190FBF1F290FB20
:10142000F1F5A5F1800501FB12041B3C02D56442D5
:10143000012000E00020DFF890A080460027FA4459
:10144000AAF1BE0A0DE0E00709D03246684607EB74
:1014500047010AEB810100F021FB8DE807006410D1
:101460007F1C002CEFD1184F7F44AC3F18E0E807F9
:1014700014D007EB04100DF1180A90E80E008AE86A
:101480000E00C068F04201D198190890324606A9B2
:1014900003A800F003FB03AB83E807006D10641C96
:1014A000002DE4D132466946B8F1000F03A802D0FE
:1014B00000F0E0FA01E000F0F1FAC9E90001C9F832
:1014C00008200AB0BDE8F08734BE000070B51646AB
:1014D0000C46054600F044F8036893F80101012822
:1014E00006D0FF2C0FD8185D68B101202C7070BD9C
:1014F000D3F807013246214603F207130344284676
:10150000BDE8704018474FF0FF3070BD004870478D
:10151000CC2600207546FFF7F9FFAE460500694668
:10152000534620F00700854618B020B5FEF7FCFEB4
:10153000BDE820404FF000064FF000074FF00008D4
:101540004FF0000B21F00701AC46ACE8C009ACE855
:10155000C009ACE8C009ACE8C0098D46704700007E
:1015600010B5FFF711FD001D10BD00BFFD600000AC
:1015700010B50446AFF300802046BDE81040FEF7EA
:1015800072BE000001491820ABBEFEE72600020033
:1015900070475FEA400C08BF91F0000F4FEA8C23C0
:1015A0004FEAC12243EA51514FEA1C5018BF00F5DF
:1015B000F0404FEA300018BF41F000415FEA6C5C38
:1015C00000F02980BCF1FF3F08BF40F08040704729
:1015D000130C06BF12044FF0100C4FF0000C130E4A
:1015E00004BF12020CF1080C130F04BF12010CF11E
:1015F000040C930F04BF92000CF1020CD30F04BF34
:1016000052000CF1010C11464FF00002A0F11F0036
:10161000A0EB0C00704711F0004F08BF704731F08D
:1016200000413FF4D5AF0B0C06BF09044FF0100C7E
:101630004FF0000C0B0E04BF09020CF1080C0B0F4D
:1016400004BF09010CF1040C8B0F04BF89000CF1DD
:10165000020CCB0F04BF49000CF1010CCCF12003AC
:10166000A0EB0C0022FA03F302FA0CF241EA0301A8
:1016700000F10100704720F07F4C80EA030023F066
:101680007F47ACEB070303F57C5300F0004003F108
:10169000FF032DE980494FEA154B09B44FEA144383
:1016A00025EA0B4E24EA03480FF2042606EB132723
:1016B00049083E785FEA320203FB0667C7F5000778
:1016C00007FB06F64FEA54374FEAD64606F1020604
:1016D00007FB066CCCF1005C4FEA1C472CEA074C78
:1016E00007FB06F40CFB06F504EB15464FEA9616CD
:1016F00034BF00204FF000404FEAD13706FB07FC13
:101700004FEA1C4C0CFB0BF7D21B03FB0CF761EBF5
:1017100007010CFB0EF7B0EB074072EB17420CFB16
:1017200008F734BFA2EB0742B2EB074261EB174167
:101730004FEA0C444FEA910706FB07FC4FEA1C4CAA
:101740000CFB0BF7B0EBC74072EB573203FB0CF707
:1017500034BFA2EBC742B2EBC74261EB57310CFB7F
:101760000EF7B0EBC70072EB57720CFB08F734BFF3
:10177000A2EBC702B2EBC70261EB5771039F4FEABE
:10178000816141EA921104EBCC044FEAD1374FEA70
:10179000826206FB07FC42EA90124FEA80604FEA41
:1017A0001C4C0CFB0BF7D21B03FB0CF761EB070186
:1017B0000CFB0EF7B0EB074072EB17420CFB08F77F
:1017C00034BFA2EB0742B2EB074261EB17414FEA8D
:1017D0008C554FEA910704EB9C2406FB07FC4FEA6B
:1017E0001C4C0CFB0BF7B0EBC74072EB573203FB02
:1017F0000CF734BFA2EBC742B2EBC74261EB5731E3
:101800000CFB0EF7B0EBC70072EB57720CFB08F73E
:1018100034BFA2EBC702B2EBC70261EB577115EB05
:101820004C254FEA816141EA92114FEA82624FEA08
:10183000D13742EA901206FB07FC44F100044FEA5C
:1018400080604FEA1C4C0CFB0BF7D21B03FB0CF720
:1018500061EB07010CFB0EF7B0EB074072EB174290
:101860000CFB08F734BFA2EB0742B2EB074261EB77
:10187000174115EB1C154FEA813141EA92414FEABD
:10188000823242EA90424FEA80304FEA0C7644F1CD
:10189000000448EA03434EEA0B484FF0000EB2EB57
:1018A000080C71EB030724BF624639464EEB0E0E5F
:1018B0004FF0000B0018524149414BEB0B0BB2EBC0
:1018C000080C71EB03077BF1000B24BF624639461D
:1018D0004EEB0E0E4FF0000B0018524149414BEBFE
:1018E0000B0BB2EB080C71EB03077BF1000B24BF71
:1018F000624639464EEB0E0E51EA020718BF46F01B
:10190000010616EB0E7655F1000254F1000103D5E5
:10191000BDE88901BDE80088BDE88901BDE800484F
:10192000B619524141EB0101A3F1010370478080D8
:101930007F7E7D7C7B7A7978777676757473727129
:1019400071706F6E6E6D6C6C6B6A6A6968686766E1
:1019500066656464636362616160605F5F5E5E5D73
:101960005D5C5C5B5B5A5A595958585757565655E7
:1019700055555454535352525251515050504F4F49
:101980004F4E4E4D4D4D4C4C4C4B4B4B4A4A4A4999
:1019900049494848484747474746464645454544DC
:1019A0004444444343434342424242414141002B69
:1019B00026D4770021D01CB54FEA370703B44FF087
:1019C00010004FF010014FF000000FBCBDE81040B8
:1019D0000BF1010BBBF1010F08BF5FEA170722BF34
:1019E00012F1010211F101014FF0004143F1000336
:1019F00000F0004043EA00007047F9D35708DAE7E7
:101A000046EA064613F1400F4FEA16461FDD13F172
:101A1000200FDFBF16430A46002120335B42C8D0A7
:101A2000C3F1200746EA064602FA07F74FEA1646D0
:101A300046EA0706C3F1200722FA03F201FA07F784
:101A400021FA03F14FF0000342EA0702B1E746EA48
:101A5000020646EA06464FEA164646EA0106BCBFBB
:101A600046EA0646360C4FF000034FF000024FF0F6
:101A700000019EE72DE9C048934630B491E8380054
:101A800007C831EA400C48BF34EA430C03D5FFF7DE
:101A9000F2FDFFF78CFFF0BCBDE800882DE9C048DF
:101AA000934630B491E8380007C810F0804F08BF63
:101AB00013F0804F03D100F005F8FFF778FFF0BC7A
:101AC000BDE8008820F07F4780EA030023F07F4CC8
:101AD00007EB0C03A3F57C5300F00040A3F1FE03D9
:101AE00092F0000F00F0B38095F0000F00F07780C7
:101AF0002DE901494FEA11404FEA144621EA004816
:101B000000FB06FC24EA064708FB06F607FB08F87C
:101B100000FB07F718EB06484CEB164C4FEA124B4C
:101B200018EB07484FEA15464CEB174022EA0B4EDC
:101B30000BFB06FC25EA06470EFB06F607FB0EFE2E
:101B40000BFB07F71EEB064E4CEB164C4FF0000656
:101B50001EEB074E4CEB174B18EB0B0840F1000047
:101B600018EB0E0B58EB000840F100008F1A4FF0F5
:101B700000013CBFC943661B14BFB5EB040C002138
:101B80003CBFC943F61B4FEA17444EEA8E0E27EAC4
:101B900004454FEA1C4704FB07622CEA074C05FB8F
:101BA00007F70CFB05F604FB0CFC16EB074642EBB3
:101BB000174216EB0C4642EB1C421BEB060658EB99
:101BC0000202414146EA9E0601D5BDE80189B619E7
:101BD000524141EB0101A3F10103BDE801894FEA44
:101BE00014454FEA114724EA054621EA074C05FB54
:101BF00007F406FB07F70CFB06F105FB0CFC11EBE9
:101C0000074144EB17444FEA124711EB0C4144EBF8
:101C10001C4422EA074C05FB07F206FB07F70CFB06
:101C200006F605FB0CFC16EB074642EB174216EBDB
:101C30000C4642EB1C456A1854F1000148BF70473E
:101C4000B619524141EB0101A3F10103704795F030
:101C5000000F37D04FEA11424FEA144721EA0246FB
:101C600024EA074C02FB07F106FB07F70CFB06F41E
:101C700002FB0CFC14EB074441EB17414FEA1547FC
:101C800014EB0C4441EB1C4125EA074C02FB07F521
:101C900006FB07F70CFB06F602FB0CFC16EB0746EF
:101CA00045EB174516EB0C4645EB1C42121951F15A
:101CB000000148BF7047B619524141EB0101A3F141
:101CC000010370474FEA14454FEA114724EA0546DD
:101CD00021EA074C05FB07F106FB07F70CFB06F2B0
:101CE0004FF0000605FB0CFC12EB074241EB1741DD
:101CF00012EB0C4251EB1C4148BF7047921841EB6C
:101D00000101A3F101037047F0B5224D224885B0CF
:101D10000024C5E90240284600F0CCF9686806F0C6
:101D2000D7FB06B2286806F0D3FB80251B49CDE916
:101D300001450094CDE9035100B2402320223146F1
:101D400003F0FCFB16488168006806F031FD114E77
:101D500020F000406036B0F1814F02DA1148C6E948
:101D600002040C48603000F0A5F9706806F0B0FB82
:101D700007B2306806F0ACFB0B49CDE90145009491
:101D8000CDE9035100B240231022394603F0D6FBBF
:101D900005B0F0BD3C2600200000A0C294CF000892
:101DA000F42500200000DC4244CE0008F0B5224DAE
:101DB000224885B00024C5E90240284600F07AF99F
:101DC000686806F085FB06B2286806F081FB80256E
:101DD0001B49CDE901450094CDE9035100B24023F0
:101DE0002022314603F0AAFB16488168006806F0FD
:101DF000DFFC114E20F000403036B0F1814F02DAA6
:101E00001148C6E902040C48303000F053F97068FC
:101E100006F05EFB07B2306806F05AFB0B49CDE9CD
:101E200001450094CDE9035100B240231A223946FE
:101E300003F084FB05B0F0BD3C2600200000A0C2EA
:101E400094CF0008F42500200000CC42C4CE000846
:101E50000448406AC068002802D0022004F0E6BCB2
:101E60007047000070000020014803F053BC0000E0
:101E7000B8000020FEE70FB470B5A0B00D460646CE
:101E8000002427AB80216846269AFEF771FA68463F
:101E900008E0090603D5A1190CB2801C02E0611903
:101EA0000CB2401C01780029F3D120B0204670BC50
:101EB0005DF814FB1CB5044600F150014030CDE93B
:101EC000000104F1300304F1200204F11001204666
:101ED00000F038F804F1540104F14400CDE90001A8
:101EE00004F1340304F124024039201D00F02AF8E3
:101EF00004F1580104F14800CDE9000104F1380370
:101F000004F128024039403800F01CF804F15C016B
:101F100004F14C00CDE9000104F13C0304F12C0272
:101F20004039403800F00EF81CBD1CB500F1140219
:101F3000111FCDE900120B1F0C3A011D00F002F831
:101F40001CBD00002DE9FC5FDFF850B1DDE90C8914
:101F50000446DBF824001F461546407A0E464FF033
:101F6000000AB8BB3168206806F07EFA7ED0DBF844
:101F700024004068B0F5000F05DA00BFC5F800A0E6
:101F8000C7F800A086E0286838602168306806F04D
:101F90000FFC28600090DBF824004149406806F0FF
:101FA000FFFA009906F0FCFA216806F02DF920608E
:101FB0000190DBF824003B49406806F093F900905B
:101FC0003168019806F0F4FB20F00040009906F01B
:101FD000B3FAD3D3DBF82400417A01295CD14068FD
:101FE0008346B0F5000F08DAC5F800A0C7F800A0D6
:101FF000C9F800A0C8F800A04CE0294906F0D0FAC2
:1020000001902949584606F0CBFA009028683860BC
:10201000DFF898B02168306806F0CAFB2860D8F86D
:1020200000200146104606F0EFF8C8F800003968B5
:10203000286806F0BDFB1E4906F054F90146C9F8B0
:102040000000584606F0ACFA8346D8F80010009815
:1020500006F0A6FA80462968019806F0A1FA4146E2
:1020600006F0D2F8594606F0CFF800E014E02168F7
:1020700006F0CAF801462060306806F099FB20F0AF
:102080000040B0F17C5F07DAC5F800A0C7F800A0F7
:10209000C9F800A030682060BDE8FC9F70000020F7
:1020A0000AD7A33C0000A0410AD7A33B6F12033B11
:1020B000CDCCCC3D1CB5044600F128012030CDE943
:1020C000000104F1180304F1100204F10801204694
:1020D000FFF738FF04F12C0104F12400CDE90001E1
:1020E00004F11C0304F114022039201DFFF72AFF1C
:1020F0001CBD00002DE9F0412348244D446A05F140
:1021000030062078E0B9B4F92E0006F0FDF9A5F10B
:10211000F001096806F078F84FF0864106F048FBB8
:102120002860616C6960206CC5E90201B4F9140093
:1021300006F0EAF93060B4F9140006F0E5F97060D1
:10214000207801281BD1B4F9360006F0DDF9276CA0
:10215000394606F059F82860B4F93800C04306F053
:10216000D3F9C5E90107606CE860B4F9140006F022
:10217000CBF93060B4F9140006F0C6F97060BDE820
:10218000F04104F059BB000070000020F42500204D
:102190002DE9F0473348344D4FF00008446A05F10B
:1021A00030072078B0BBB4F92E0006F0ADF9A5F1E8
:1021B000F006316806F028F84FF0864106F024F862
:1021C0002860B4F9300006F09FF98146716806F086
:1021D0001BF86860B4F92E0006F096F9E16906F084
:1021E00013F8A8604846216A06F00EF8E860E06936
:1021F0003061206A7061606AB061A06AF0611B485A
:102200003860B4F9140006F07FF97860A4F83A80D9
:10221000A4F83C80207801281FD1B4F93200B4F929
:10222000366000EBD070401006EBD671A0EB610079
:1022300006F06AF9A8600E48E8600E48286070420F
:1022400006F062F968604FF07E503860B4F914000F
:1022500006F05AF97860A4F83A80BDE8F04704F037
:10226000EBBA000070000020F4250020000040C000
:102270000000C040000048C2014800F08DB90000D5
:10228000A41A002030B590F840500124AC40C56B32
:102290006C60046863604368102B036803D0996026
:1022A0000068C26030BD9A600068C16030BD704790
:1022B0002DE9F04F154690F82D2085B09B46012A58
:1022C0004CD1284A01EB81010823526A03EBC10378
:1022D00000691269D458042202EBC1020C2382580F
:1022E00003EBC10124B15AB9405848B91EA408E013
:1022F000405812B120B91DA403E008B11CA400E0AD
:102300001CA4686806F0E4F80FFA80FA286806F062
:10231000DFF8194D0FFA80F9E86806F0D9F80FFADE
:1023200080F81649A86806F043FA06F0D1F807B21B
:10233000686806F0CDF806B2286806F0C9F80E996C
:102340000BF0FF03CAB2CDE90232CDE9009A00B228
:10235000049443463A46314602F0FDFD05B0BDE81F
:10236000F08F0000700000203E0000007E000000A2
:102370002A0000002D000000042500200000C040BD
:10238000014803F0C7B9000098010020704770476A
:10239000002070477047000070B5154C04250826D2
:1023A000606A0169B0F93A0000EB800005EBC002F9
:1023B0008A5832B106EBC0000858002816D104F044
:1023C0002DFA616A0869B1F93A1001EB810106EB57
:1023D000C1028258002A09D005EBC10140580028EB
:1023E00004D1BDE87040012004F020BA70BD0000A7
:1023F0007000002072B6FEE770B51348456A95F983
:102400000A0006F081F811494E68314605F0FCFEDD
:102410000446B5F9300006F077F8A96A06F0BDF970
:10242000314605F0F1FE4FF07E5106F0C1F906F09D
:102430004FF800B206F068F8214605F053FF06F0A9
:1024400047F800B270BD0000700000202426002074
:102450000348007808B10020704701207047000051
:10246000700000200648B0F90410312902DA491C36
:1024700081807047002181800288428001807047FE
:10248000A80000200348407808B1002070470120D0
:1024900070470000700000200146002001E0401C51
:1024A00000B200EB800251F83220002AF7D17047C9
:1024B000082808D00C2803D0102807D0142808D0EA
:1024C0000C22072007E00822062004E01022082042
:1024D00001E014220A20002900D1104670470000B4
:1024E000064A936A4FF0FF322BB108B101207047C2
:1024F00009B10020704710467047000070000020AE
:1025000010B590F821100024022903D00421816322
:1025100001243DE001680A6822F00E020A600168A9
:102520000A6822F001020A601A4A0168914201D148
:10253000012121E0174A1432914201D110211BE000
:10254000144A2832914201D1891515E0114A3C32D2
:10255000914201D189140FE00E4A5032914202D1CA
:102560004FF4803108E00B4A6432914202D14FF4BB
:10257000801101E04FF08071064A083A5160012154
:1025800080F82110002180F82010416B01B18847AC
:10259000204610BD080002402DE9F05FC16B0C68B9
:1025A00001680B68D0F840C0042202FA0CF2494DD1
:1025B000DFF824A1494E4A4FDFF828B1DFF828E1BF
:1025C00022422CD05A072AD50A68920603D40A68F8
:1025D00022F004020A600168A94201D1042219E034
:1025E000514501D1402215E0B14202D14FF4806241
:1025F00010E0B94202D14FF480420BE0594502D1BC
:102600004FF4802206E0714502D14FF4800201E0D0
:102610004FF080622F4908394A60C16A3BE04FF0B1
:10262000020808FA0CF818EA040F4FF000094FF0FE
:10263000010235D05FEA837832D50B689B0605D45A
:102640000B6823F00A030B6080F821200168A9427F
:1026500001D1022219E0514501D1202215E0B142F9
:1026600002D14FF4007210E0B94202D14FF400528F
:102670000BE0594502D14FF4003206E0714502D11A
:102680004FF4001201E04FF00072124908394A601D
:1026900080F82090816A00291AD0BDE8F05F0847D1
:1026A000082505FA0CF5254212D01B0710D50B683A
:1026B00023F00E030B6090F84010C36B02FA01F197
:1026C0005960826380F8212080F82090016BE2E756
:1026D000BDE8F09F080002401C00024030000240AC
:1026E00044000240580002406C00024030B528B35C
:1026F00008C8134914221944B1FBF2F18900C163DF
:1027000010498163022141771A6843F6F0718A43C8
:10271000D0E900142143D0E902452C432143046948
:1027200021434469214384692143114319600021F5
:102730004163012242770177084630BD012030BD58
:10274000F8FFFDBF0000024070B5044690F820007D
:10275000002501280CD0012084F8200094F8216085
:102760000020012E06D084F820000225284670BDE6
:10277000022070BD022684F82160A06320680668EC
:1027800026F0010606602046FFF77CFDE06A00287F
:102790002068016802D041F00E0106E021F004013A
:1027A00001602068016841F00A0101602068016849
:1027B00041F001010160D9E770B5044600F008F965
:1027C0000546601C02D004480078044400F000F97B
:1027D000401BA042FAD370BD040000202DE9F84F41
:1027E000DFF8B8910024A9F1040B23460F2709F163
:1027F000040AABF1040EC9E00125A5402A40AA4213
:102800007DD1674ED1F804C0ACEB0608B44532D098
:1028100014DCBCF1030F3AD009DCBCF1000F2AD064
:10282000BCF1010F1CD0BCF1020F31D11DE0BCF195
:10283000110F17D0BCF1120F2AD119E0B8F5881F7B
:1028400019D006DCB8F5803F15D0B8F5801F1FD130
:1028500011E0B8F5001F0ED0B8F5041F18D10AE03A
:10286000CB6815E0CB681B1D12E0CB6808330FE086
:10287000CB680C330CE08B682BB1012B4FF00803B5
:1028800003D0456104E0042302E0056100E0002379
:10289000FF2A01D8064601E000F104064FEA84054C
:1028A00001D9A5F12005D6F8008007FA05FC28EA31
:1028B0000C0803FA05F548EA0508C6F800804D68DB
:1028C000ED0062D5374DAE6946F00106AE61AD69E7
:1028D00024F0030605F001050095334D06EB050CC9
:1028E000DCF80850A607360F07FA06F825EA0805AF
:1028F000DFF8B880404503D14FF0000817E044E00E
:10290000DFF8AC80404502D14FF001080FE0DFF85E
:10291000A480404502D14FF0020808E0DFF898801B
:10292000404502D14FF0030801E04FF0040808FAD7
:1029300006F848EA0508CCF808804D68D9F8006028
:10294000ED024D4601D5164300E096432E604D68DA
:10295000DAF80060AD02554601D5164300E0964313
:102960002E604D68DBF80060AD035D4601D516436F
:1029700000E096432E604D68DEF80060ED0375467A
:1029800001D5164300E096432E60641C0D682A466C
:10299000E5407FF431AFBDE8F88F00000804014046
:1029A000000011100010024000000140000801402A
:1029B000000C0140001001400014014080680840F4
:1029C00000D0012070470AB1016170470904FBE79C
:1029D00001488068704700000400002070B50400C2
:1029E00025D094F83D00002520B984F83C502046BD
:1029F00000F0B8F8242084F83D002068016821F038
:102A0000010101602068016841F400410160206813
:102A1000016821F40041016000F052FA4D4A6168FA
:102A2000914201D84C4900E04C49884201D2012032
:102A300070BD4B492368B0FBF1F15E6826F03F069C
:102A40000E435E606368934206D94FF49673594310
:102A50004FF47A73B1FBF3F12368491C1E6A26F028
:102A60003F06314319626168914210D84900401E07
:102A7000B0FBF1F2521CC2F30B02042A01D2042073
:102A800022E0B0FBF1F0401CC0F30B001CE0A26898
:102A9000F2B301EBC10303EB0116431EB3FBF6F3E4
:102AA0005B1C43F480431B0549D092B301EBC10288
:102AB00002EB0111401EB0FBF1F0401CC0F30B0013
:102AC00040F4804040F400402168CA694CF6FF732E
:102AD0009A431043C861D4E9071001432068026893
:102AE00022F0C00211430160D4E9030101432068D0
:102AF000826848F2FF339A4311438160D4E90501AB
:102B000008432168CA6822F0FF021043C86001E050
:102B10000EE016E02068016841F0010101602564C3
:102B2000202084F83D00256384F83E50002070BDCD
:102B300001EB4106431EB3FBF6F35B1CB3E7012038
:102B4000C2E701EB4101401EB0FBF1F0401CC0F3B5
:102B50000B00B7E7A086010080841E0000093D003D
:102B600040420F0010B586B0002100910191029102
:102B7000039100680F4988421AD10F4CA06940F0B8
:102B80000800A061A069694600F008000490C02018
:102B9000009012200190032003900848FFF71EFECA
:102BA000E06940F40010E061E06900F40010049076
:102BB00006B010BD0054004000100240000C01405F
:102BC0000248816802781144816070470400002047
:102BD000074810B5016841F010010160032000F0C2
:102BE000A7F80F2000F006F800F050F8002010BD04
:102BF0000020024030B505461F4887B0C16941F04A
:102C00000401C161C06906A900F00400009001A898
:102C100000F036F90498B0B100F052F940001749BD
:102C2000174AB0FBF1F11748491E0260416040F2BB
:102C3000E7320021C0E903218160816100F0C0FD1D
:102C4000040003D015E000F03BF9E8E70D4800F080
:102C500003FE04000DD11E2000F03CF8102D07D219
:102C6000002229461E2000F043F80748056000E0D6
:102C7000012407B0204630BD0010024040420F0042
:102C800000080040781B0020080000200F4808B50D
:102C9000816941F001018161816901F001010091C7
:102CA000C16941F08051C161C069002200F08050CB
:102CB00000900F21901E00F01BF80548416821F09C
:102CC000E06141F00071416008BD00000010024069
:102CD00000000140002809DB00F01F0201219140A3
:102CE0004009800000F1E020C0F8001170470000AA
:102CF000F0B40E4B1B680C46C3F30223C3F1070567
:102D0000042D00D90425191D072901D2002300E054
:102D1000DB1E012606FA05F1491E214099409E401E
:102D2000761E16403143F0BC04F09DB80CED00E077
:102D3000064900F0070208684FF6FF03184040EA12
:102D40000220034A10430860704700000CED00E0C9
:102D50000000FA052DE9F0470F46050061D0434E0B
:102D6000306800F00700B84209D2306820F0070050
:102D700038433060306800F00700B84251D128680D
:102D80003B4C810712D5400703D5606840F4E060F2
:102D900060602878000703D5606840F46050606088
:102DA0006068A96820F0F000084360602878C007D8
:102DB00028D06868012810D02168022810D089071F
:102DC00000292EDA616821F0030101436160FFF7F9
:102DD000FFFD804641F288390DE021688903EFE765
:102DE0008901EDE7FFF7F4FDA0EB0801494502D9A1
:102DF0000320BDE8F0876068696800F00C00B0EB64
:102E0000810FEFD1306800F00700B8420BD930686D
:102E100020F0070038433060306800F00700B84207
:102E200001D00120E5E72878400705D56068E9680A
:102E300020F4E060084360602878000706D56068E9
:102E4000296920F4605040EAC100606000F048F851
:102E50006168084AC1F30311515CC8400649086023
:102E600006480068FFF7C6FE0020C2E700200240C7
:102E700000100240A4890008100000200800002073
:102E80000F2202600C4A536803F003034360536847
:102E900003F0F0038360536803F4E063C360526897
:102EA0004FF4E06303EAD20202610448006800F0D4
:102EB0000700086070470000001002400020024038
:102EC0000448054900684968044AC1F30221515C7D
:102ED000C84070471000002000100240B48900086C
:102EE0000E4A51680E4801F00C03042B11D0082B38
:102EF0000FD10C48C1F38343C903C05C0AD55168A4
:102F0000084AC1F34041921E515C054A5043B0FB50
:102F1000F1F0704704494843704700000010024038
:102F200000127A009489000800093D002DE9F84F4D
:102F3000040070D02078C04DC00749D06868C0F345
:102F40008100012807D06868C0F38100022809D1F8
:102F50006868C00306D52868800339D560680028F2
:102F6000E7D035E06068B0F5803F0BD010B1B0F528
:102F7000A02F11D0286820F480302860286820F421
:102F8000802002E0286840F480302860606890B1BA
:102F9000FFF71EFD06460AE0286840F480202860FE
:102FA000F0E700BFFFF714FD801B642873D8286882
:102FB0008003F7D50CE0FFF70BFD064605E000BFE8
:102FC000FFF706FD801B6428F0D828688003F7D43B
:102FD00020789A4E80074FF001094FF0000839D54C
:102FE000686810F00C0F07D06868C0F381000228F1
:102FF00009D16868C00306D42868800714D5206901
:10300000012808D110E02069B0B1C6F80090FFF7A0
:10301000DFFC074605E00AE1FFF7DAFCC01B0228E7
:10302000C4D828688007F7D52868616920F0F800BF
:1030300040EAC10028600DE0C6F80080FFF7C8FC38
:10304000074604E0FFF7C4FCC01B022823D8286809
:103050008007F7D4207800072CD57948A169D9B129
:10306000C0F80090FFF7B4FC074604E0FFF7B0FC9F
:10307000C01B02280FD8686A8007F7D571484FF443
:10308000FA510068B0FBF1F0009000BF0098411EBB
:103090000091FAD20EE080E0C0F80080FFF798FCC3
:1030A000074604E0FFF794FCC01B022875D8686A45
:1030B0008007F7D42078400760D5E8690027C00072
:1030C00008D4E86940F08050E861E869012700F021
:1030D000805000905C480168C90513D4016883469C
:1030E00041F480710160FFF773FC824606E000BF87
:1030F000FFF76EFCA0EB0A0064284ED8DBF8000056
:10310000C005F5D5E06801280AD008B1052813D01C
:10311000286A20F001002862286A20F0040002E0FA
:10312000286A40F001002862E06841F2883B98B1CB
:10313000FFF74EFC82460BE0286A40F0040028624C
:10314000EEE700BFFFF744FCA0EB0A0159455AD84F
:10315000286A8007F6D50CE0FFF73AFC824605E0C6
:10316000FFF736FCA0EB0A0159454CD8286A8007C6
:10317000F6D41FB1E86920F08050E861E06988B3B7
:103180006968C1F38101022944D00228C6F8608031
:1031900004D0FFF71DFC044638E034E0FFF718FCCC
:1031A000074604E0FFF714FCC01B02282BD8286850
:1031B0008001F7D4206AB0F5803F05D16868A16826
:1031C00020F4003008436860D4E9080108436968C6
:1031D00021F4741108436860C6F86090FFF7F8FBAB
:1031E000044606E025E000BFFFF7F2FB001B0228C3
:1031F00009D828688001F7D51BE000BFFFF7E8FB7E
:10320000001B022802D90320BDE8F88F286880013E
:10321000F4D40EE00128F7D06868226A00F4803107
:10322000914204D1616A00F47010884201D00120FB
:10323000EAE70020E8E700000010024000004242F8
:1032400080044242100000200070004070470000DF
:1032500038B50446006842688168C9434B0606D504
:10326000CB0704D1D3435B0601D4216C05E08B0767
:1032700008D4D3431B0605D4616C01B02046BDE8D9
:10328000304008478B0601D54B0646D4D3439B06F6
:1032900043D44B060AD494F85130032B3ED0636DCF
:1032A00043F004036365C36883680093890609D407
:1032B000616D41F00101616581680091016821F053
:1032C00040010160606D002827D02068416821F02E
:1032D000E0014160012084F85100900722D020686D
:1032E000416821F003014160104DE06C40B145633D
:1032F000E06CFFF705F918B1606D40F040006065C3
:10330000A06C002809D04563A06CFFF7F9F80028ED
:1033100003D0606D40F04000606538BDC1688068D2
:10332000009038BD2046FFF791FF38BD7566000854
:1033300070B5040009D0606A002540B1256165615F
:10334000A56294F8510040B10CE0012070BD6068A6
:10335000B0F5827FF4D0E561F2E784F85050204662
:1033600000F040F8022084F851002068016821F044
:1033700040010160A088218900F4827001F40441B9
:103380000843A18901F400610843217C01F0020196
:103390000843217D01F001010843218B01F40071F4
:1033A0000843217F01F03801084394F8201001F010
:1033B00080010843218D01F4005108432168086011
:1033C000A069042101EA1040216848602068C169B1
:1033D00021F40061C1616565012084F8510000207D
:1033E00070BD000070B586B00025064600950195B9
:1033F0000295039500681F49884238D11E49C86963
:1034000040F48040C861C86900F480400490886935
:1034100040F0080088618869694600F0080004905F
:103420004FF42040009002200190032003901348A5
:10343000FFF7D4F9134C124820601020C4E90105AD
:103440008020C4E9030580016561C4E90650204677
:10345000FFF74CF908B1FEF7CDFFB4640022052157
:1034600024206662FFF744FC2420FFF733FC06B0FB
:1034700070BD00000038004000100240000C014008
:1034800058000240A41A00202DE9F84F984616462D
:103490008A460446FFF79CFA814694F851000128B9
:1034A0001ED1BAF1000F73D0002E71D094F85000E5
:1034B000012815D0012784F85070032084F85100AA
:1034C00000256565C4F830A0A686E686A563A587B5
:1034D000E58765642564A068B0F5004F03D00CE073
:1034E0000220BDE8F88F2068016821F040010160EA
:1034F0002068016841F48041016020680168490644
:1035000003D4016841F040010160E068B0F5006F4C
:10351000606803D048B3012E27D047E008B1012EE0
:103520001FD1206B21680088C86006E02068816890
:10353000890709D5216B0988C160206B801C206335
:10354000E08E401EE0860CE0FFF742FAA0EB090196
:10355000414503D3B8F1FF3F03D035E0B8F1000F88
:1035600032D0E08E0028E1D123E0206B2168007882
:10357000087306E02068816889070AD5216B0978FD
:103580000173206B401C2063E08E401EE0860DE03E
:103590002BE0FFF71DFAA0EB0901414503D3B8F179
:1035A000FF3F03D010E0B8F1000F0DD0E08E0028EF
:1035B000E0D14A464146204603F0ACF808B120204D
:1035C0006065A06830B109E084F8517084F850500B
:1035D000032086E72068C1688068009084F85170F5
:1035E00004F8505F60680028F3D0012079E70000FC
:1035F00070B5044690F8510001281CD1C9B1C2B180
:1036000094F85000012816D0012084F850000320BF
:1036100084F85100002565652163A286E286A563D2
:1036200065642564A587E587A068B0F5004F04D0E0
:103630000DE0012070BD022070BD2068016821F0FE
:10364000400101602068016841F480410160A16C83
:103650001748C862A16C17488862A16C16480863B5
:10366000A06C4563E38E2268216B0C32A06CFFF7DF
:103670006BF830B1606D40F01000606584F8505018
:10368000D7E720680168490603D4016841F040018A
:10369000016084F850502068416841F02001416089
:1036A0002068416841F002014160002070BD0000C7
:1036B000A7660008B16600088566000870B51E4C54
:1036C000A078012837D120791C4E4FF4805500B3E3
:1036D00000202071E178491CC9B2E17007290DD999
:1036E000E070A070012251021548FFF76CF92946DD
:1036F0003046BDE870400122FFF765B90022294637
:103700003046FFF760F90F48E178032200EB8101B2
:103710000CE001202071024629463046FFF753F99C
:1037200061780948E178802200EBC111BDE8704062
:103730000648FFF75DBF70BD50000020000C01403F
:103740000008014084240020842000204C1A00201E
:10375000704770477047000070B590F83C20012A10
:1037600026D0012480F83C40022280F83D200368E6
:103770005A689D6822F070060A6832435A600D4B01
:1037800002689A4208D0B2F1804F05D00A4B9A42A3
:1037900002D00A4B9A4204D1496825F080031943AC
:1037A000916080F83D40002180F83C10084670BDD3
:1037B000022070BD002C01400004004000080040C1
:1037C00010B5040003D094F83D0010B107E00120CB
:1037D00010BD002084F83C00204600F01FF80220B5
:1037E00084F83D00211D206803F0B6FA012084F81A
:1037F000460084F83E0084F83F0084F8400084F8D6
:10380000410084F8420084F8430084F8440084F8BE
:10381000450084F83D00002010BD000008B5006898
:103820000B49884212D10B48816941F400618161E2
:103830008069002200F40060009005211920FFF744
:1038400057FABDE808401920FFF744BA08BD000048
:10385000002C01400010024090F83D10012901D0D9
:1038600001207047022180F83D100168CA6842F0CB
:103870000102CA6000680B49884208D0B0F1804F4D
:1038800005D00949884202D00849884204D181689C
:1038900001F00701062903D0016841F00101016030
:1038A00000207047002C0140000400400008004048
:1038B00070B5044690F83C000025012817D0012679
:1038C00084F83C60022084F83D002068826822F081
:1038D000770222F47F4282600868502838D00DDCDD
:1038E00020284FD005DC90B3102811D14AE00220E7
:1038F00070BD302846D040280AD13BE060282FD048
:1039000070280DD0B0F5805F03D0B0F5005F12D005
:10391000012584F83D60002084F83C00284670BDF5
:10392000CB68D1E90121206803F052FA2068816850
:1039300041F0770109E0CB68D1E90121206803F06B
:1039400047FA2068816841F480418160E1E719E02D
:10395000CA684968206803F04DFA5021206806E0E3
:10396000CA684968206803F056FA6021206803F0AD
:1039700039FACEE7CA684968206803F03BFA40216B
:103980002068F4E7226801461046F0E72DE9F0418F
:103990000D46040003D094F83D0018B108E0012062
:1039A000BDE8F081002084F83C00204600F040F89B
:1039B000022084F83D002068816844F207029143A8
:1039C0008160211D206803F0C7F922689068916921
:1039D000166A2B68AF69034340F20330814341EA22
:1039E0000721A868EF6908434FF6FC418843E9685E
:1039F00040EA0720014328692F6A000140EA0730A6
:103A0000084369686D6926F0220646EA05152943D0
:103A100093602268906154F8460B0162012004F81B
:103A20001F09E0752076E0762077A0750020B7E7C3
:103A300000B585B0002100910191029103910068C9
:103A4000B0F1804F16D10C48C16941F00101C1614C
:103A5000C16901F001010491816941F004018161B2
:103A60008069694600F00400049003200090034838
:103A7000FEF7B4FE05B000BD001002400008014092
:103A800070472DE9F04104460068C66805694FF0AB
:103A90000007A90713D5B10711D5F91E016101204F
:103AA0002077206880698007204602D0FFF7E8FF72
:103AB00004E000F07EF8204600F07CF827776807E5
:103AC00016D5700714D521686FF004000861022034
:103AD00020772068806910F4407F204602D0FFF7ED
:103AE000CFFF04E000F065F8204600F063F8277788
:103AF000280715D5300713D521686FF00800086135
:103B0000042020772068C0698007204602D0FFF794
:103B1000B7FF04E000F04DF8204600F04BF827779F
:103B2000E80616D5F00614D521686FF0100008617C
:103B3000082020772068C06910F4407F204602D01A
:103B4000FFF79EFF04E000F034F8204600F032F862
:103B50002777E80708D0F00706D021686FF001004A
:103B60000861204600F028F8280608D5300606D55A
:103B700021686FF0800008612046FFF7EAFD6806C3
:103B800008D5700606D521686FF040000861204610
:103B900000F032F8A8060AD5B00608D521686FF003
:103BA000200008612046BDE8F041FFF7D3BDBDE825
:103BB000F08170477047000070B5044600680B49FB
:103BC000884209D10A4D2868401C2860142803D374
:103BD00001F056FE0020286006492068884203D183
:103BE000BDE87040FEF7ECBF70BD0000002C014046
:103BF00000000020000800407047FEE7704700000A
:103C0000094808B5416941F001014161406900225C
:103C100000F00100009005210F20FFF769F8BDE8D2
:103C200008400F20FFF756B8001002402DE9F04180
:103C300086B0002000900190029003902148816995
:103C400041F020018161816901F0200104918169C5
:103C500041F004018161816901F0040104918169ED
:103C600041F0080181618069174F00F0080004905D
:103C700001223C213846FEF7A6FEDFF85080BE1434
:103C8000002231464046FEF79EFE00224FF440716E
:103C90003846FEF798FE01244FF44F70CDE900043A
:103CA000032569463846CDE90245FEF797FDCDE983
:103CB000006469464046CDE90245FEF78FFD06B037
:103CC000BDE8F0810010024000080140000C0140F6
:103CD0000D4810B50B4901600C49416000214FF4BB
:103CE00080428160C0E9031241618161C16101626A
:103CF000FEF774FE002803D0BDE81040FEF77ABB43
:103D000010BD000000540040F8190020A0860100FA
:103D10000F4810B50D4901604FF4827141600021D8
:103D20008160C1604FF400720161C0E90512C16198
:103D30000162416281620A21C162FFF7F9FA00283B
:103D400003D0BDE81040FEF755BB10BD0038004061
:103D50004C1A002010B586B0002417480094019436
:103D60000294039404941349059401604721C0E927
:103D7000011440F2E731C0E9031444618461FFF7A4
:103D80001FFD08B1FEF736FB4FF4805000906946E6
:103D90000948FFF78DFD08B1FEF72CFB049404A938
:103DA00005480594FFF7D8FC002801D0FEF722FB58
:103DB00006B010BD002C0140E81A002010B58CB0F0
:103DC00024216846FCF755FC0024154809944FF05F
:103DD00080410A94C0E900144FF6FF71C0E9024126
:103DE000046184610120CDE90004CDE9020404945A
:103DF000CDE905400794694609480894FFF7C6FDD8
:103E000008B1FEF7F7FA099409A905480A94FFF7E3
:103E1000A3FC002801D0FEF7EDFA0CB010BD0000A5
:103E2000301B00200B490A4A0020C1E90220C1E9E9
:103E300000203031084AC1E90220C1E900203031B8
:103E40004FF08642C1E90220C1E90020704700001E
:103E5000000048C33C26002000000143FEE70000AC
:103E6000084810B5406A90F90A0004F04DFB064975
:103E7000496804F0C9F9044C303CE16804F0C4F925
:103E8000E06010BD7000002024260020084810B516
:103E9000406AB0F9360004F037FB0649496804F07F
:103EA000B3F9044C303CA16804F077FCA06010BD6D
:103EB0007000002024260020084810B5406AB0F9A0
:103EC000360004F021FB0649496804F09DF9044CD2
:103ED000303CA16804F098F9A06010BD700000208B
:103EE00024260020084810B5406A90F90A0004F022
:103EF0000BFB0649496804F087F9044C303CE16843
:103F000004F04BFCE06010BD70000020242600206F
:103F1000F8B502F0A9FC02F0C7FD02F0D5FD02F0F1
:103F20001FFE2048FEF7C6F81E483030FDF7FDFFA3
:103F30001C483038FDF7F9FF1A48F038FDF7BAFF92
:103F400001F0F4FD1848FDF7B5FF174CE06804F0E8
:103F5000BFFA07B2A06804F0BBFA06B2606804F0CA
:103F6000B7FA05B2206804F0B3FA104C00B23B4631
:103F7000616A3246097A0091294602F001FAA07876
:103F800001F0A0F8B4F9080000F013F8054818385B
:103F9000FDF7CBFF03489038FDF78CFFBDE8F840F4
:103FA00000F064BBF4250020A42400207000002051
:103FB000FEE710B50446FF2801DDFF2402E0002CD7
:103FC00000DA00240021812001F04CF8E0B2BDE8C5
:103FD0001040002101F046B830B400220A4D1446CA
:103FE000002105EBC2135C54491CC9B28029FAD3E5
:103FF000521CD2B2082AF3D3002802D030BC00F001
:10400000C9BF30BC7047000084200020F0B5002AF2
:1040100038DD002B36DD002801DA002500E00546FA
:10402000104402B2802A00DD802295422ADA00295B
:1040300001DA002000E00846194409B2402900DDF9
:10404000402188421EDA1BE0C31700EB537626F0AE
:104050000703C71A0123DFF830C0BB40F6102C4617
:104060000CEBC61608E03719641C97F800C024B2A0
:104070002CEA030C87F800C09442F4DB401C00B229
:104080008842E1DBF0BD0000842000204FF00001F9
:1040900010B1A72000F0E6BFA620FBE710B558B18D
:1040A000012810D10021C02000F0DCFF0021A02059
:1040B000BDE8104000F0D6BF0021C82000F0D2FFBC
:1040C0000021A120F4E710BD2DE9FF5F0D468046D9
:1040D000002A7DDDC2F1010014460FFA80FB0026A4
:1040E000214630460E9B039A00F056FE474620B10B
:1040F000281901B2404600F089F9604201B24FF040
:10410000000A894650460E9B039A00F045FE20B1F6
:10411000281B01B2384600F079F9314620460E9B43
:10412000039A00F039FE28B108EB0400294600B2DA
:1041300000F06CF9514648460E9B039A00F02CFEA5
:1041400028B1A8EB0400294600B200F05FF90F98EF
:10415000002811D04F460DE0394600200E9B039AEF
:1041600000F01AFE20B1E81901B2404600F04EF905
:104170007F1C3FB2A742EFDBCDE0761C36B2BBF12D
:10418000000F02DA0BEB460004E0641E24B2311B80
:104190000BEB4100401C0FFA80FB214630460E9B82
:1041A000039A00F0F9FD30B1281901B208EB0600BE
:1041B00000B200F02BF9314620460E9B039A00F026
:1041C000EBFD40B1A81901B208EB040000B200E019
:1041D000A4E000F01BF9604201B2704200B28946CF
:1041E00082460E9B039A00F0D7FD30B1281B01B226
:1041F000A8EB060000B200F009F9514648460E9BB4
:10420000039A00F0C9FD30B1A81B01B2A8EB04006D
:1042100000B200F0FBF8494630460E9B039A00F0CE
:10422000BBFD30B1281B01B208EB060000B200F064
:10423000EDF8514620460E9B039A00F0ADFD30B1DB
:10424000A81B01B208EB040000B200F0DFF8214621
:1042500050460E9B039A00F09FFD30B1281901B221
:10426000A8EB060000B200F0D1F8314648460E9B9C
:10427000039A00F091FD30B1A81901B2A8EB040037
:1042800000B200F0C3F80F98F0B34F461DE0394676
:1042900030460E9B039A00F07FFD30B1E81901B261
:1042A00008EB060000B200F0B1F8394650460E9B0C
:1042B000039A00F071FD30B1E81901B2A8EB0600D5
:1042C00000B200F0A3F87F1C3FB2A742DFDB5746E5
:1042D0001FE0394648460E9B039A00F05DFD30B161
:1042E000E81901B2A8EB040000B200F08FF83946DB
:1042F00020460E9B039A00F04FFD40B1E81901B231
:1043000008EB040000B200E005E000F07FF87F1C3D
:104310003FB2B742DDDBA642FFF62FAFBDE8FF9FFD
:104320002DE9F04F1E464FF0000904460D46174692
:10433000C846B1420ED1BC4208DD2746144605E00E
:104340002946204600F062F8641C24B2BC42F7DD26
:10435000BDE8F08FBC420DD1B54208DD1D460E46CA
:1043600005E02946204600F051F86D1C2DB2B542FB
:10437000F7DDEDE703DD274614461D460E46B54240
:1043800005DD684205B2704206B24FF00109701BAC
:10439000391B884207DD20462C46054638463746FD
:1043A00006464FF00108701B4200391B0FFA82FBD2
:1043B000421A52000FFA82FAC1EB400019E0604243
:1043C00001B203E0684201B203E02146284601E061
:1043D0002946204600F01AF8BC42B9DA641C24B21F
:1043E000002E02DA06EB0B0003E06D1C2DB206EB8B
:1043F0000A0006B2B9F1000F03D0B8F1000FE1D006
:10440000DDE7B8F1000FE3D0DFE7000010B50028CA
:1044100015DB002913DB7F2811DC3F290FDCCA17CD
:1044200001EB5272D410064B22F0070203EBC413C7
:1044300018448A1A0378012191400B43037010BD80
:10444000842000202DE9F043002ADDF81CC059D05B
:10445000002B57D0050005EB0200A0F1010007B2C8
:1044600001EB0300A0F101000C4606B200D50025C7
:10447000802F00DB7F27002C00DA0024402E00DB99
:104480003F26781B401C01B2301B401C00B20029A3
:1044900038DD002836DDBCF1000F16D0E01704EB44
:1044A0005071F017CB1021F0070106EB5070611A24
:1044B000FF224FEAE00C02FA01F120F00700301A67
:1044C000C0F10700CCB2C24039E0A8460AE021465C
:1044D000FFF79CFF31464046FFF798FF08F10100C7
:1044E0000FFA80F84046B845F1DD09E0214628463C
:1044F000FFF78CFF21463846FFF788FF641C24B283
:10450000B442F3DDBDE8F0831846DFF8389012E0DE
:10451000FF21984200D12146604500D11140082872
:1045200007D209EBC01616F8058048EA010806F81C
:104530000580401C00B26045EADD6D1C2DB2BD4215
:10454000E2DDDFE7842000202DE9FF4F85B01D4626
:10455000DDE91247160067D0002D65D006EBD67056
:10456000B4EB600F04DC05EBD570B4EB600F07DD36
:10457000AE4201DA104600E0184600EBD07044105D
:10458000002C05DC0097DDE905012B46324649E0A9
:104590006FF0590ACDE900A70698B423204401B270
:1045A00005988946204400B280462246FFF78CFDDC
:1045B0000020CDE900070598494630440290001BD1
:1045C000401E00B2834653462246FFF77DFDB420CD
:1045D000CDE9000706985A2328440390001B401E8B
:1045E00001B28A4640462246FFF76EFD5A20CDE9C9
:1045F00000075146584600232246FFF765FDB7B134
:10460000644206EB4400012702B240462B46009765
:104610000699FFF717FF05EB440003B200974946E0
:1046200032460598FFF70EFF09B0BDE8F08F069BF4
:104630005A4640461946FFF773FE03985A46401EF5
:1046400001B20B464046FFF76BFE059A53464946BA
:104650001046FFF765FE029809B053464946BDE88B
:10466000F04F401E00B20246FFF75ABE2DE9F04F50
:10467000FE4FFF4DDFF8FC83B878DFF8FCB3FF4C4A
:1046800091B020B9FE48C4E9040BC4E90685F74B94
:104690002C3B986A00287DD090F910000021FDF78E
:1046A00007FF8146986A012190F91000FDF700FF8D
:1046B0000646B8784FF0000A012808D0E068A84202
:1046C00069D0A1684145FBD061685945F8D0E748F9
:1046D0004FF0804B2C385D46806A5946007A00289E
:1046E000E0687CD003F090FD03F0F2FE00B202908F
:1046F0002946A06803F088FD03F0EAFE0FFA80F86F
:104700004FF07E573946606804F052F803F0E0FE3F
:1047100005B23946206804F04BF803F0D9FE0222B6
:10472000CDE9002A00B242462946029BFFF70CFF62
:10473000E06803F0CDFE0FFA80F8A06803F0C8FE31
:1047400007B2606803F0C4FE05B2206803F0C0FE43
:1047500000B243463A462946FFF758FCDFF80C837F
:10476000A8F12C08D8F82870B7F91200400003F01F
:10477000CBFEA16804F011F84FF0814104F018F865
:1047800003F0A6FE05B2D7E90610FDF7A9FE411C0D
:104790007ED001E060E262E20128D8F828004746B6
:1047A00077D08069006803F003FDCDE90001B5A270
:1047B00031464846FDF75FFB03F0A6FE0546B86AA2
:1047C0000390B0F91200400003F09EFEA16803F0D0
:1047D000E4FF294603F0ECFF4FF0814100E0CBE01D
:1047E00003F0E6FF03F074FE05B2039880690068E9
:1047F00003F0DEFCCDE90001A2A231464846FDF7F8
:104800003AFB0490BF6AB869006803F0D1FCCDE9B7
:104810000001B7F9140003F077FE6168039103F01B
:10482000F3FC03F055FE00B20E90049803F06CFE0A
:104830000590B7F9120003F067FE0490B7F9000085
:1048400003F062FE2768394603F0DEFC4FF07E512C
:1048500003F0AEFF049903F0ABFF059903F0A8FF46
:1048600003F036FE00B20F90E06803F031FE00B2B4
:104870000D90A06803F02CFE00B20590039803F0A1
:1048800027FE00B20C90384603F022FE07B201E08A
:1048900078E1ABE0DDE90001CDE9060109F0FF02B6
:1048A0000E98CDE9010277A3F1B2CDE903130F9879
:1048B0000090DDE90C133846059A00F04CFB00BF70
:1048C000D8F82870B7F92E000690400003F01CFEBF
:1048D000A16803F062FF03F0FBFD00B20390B7F99B
:1048E0002C0003F011FE0490B7F930300593184600
:1048F00003F00AFE0746E168606803F085FC39466C
:1049000003F056FF049903F053FF03F0E1FD07B2F3
:10491000069803F0F9FD216803F076FC03F0D8FD5A
:104920000222CDE9002A00B23946059B039AFFF71F
:104930000BFED8F82800B0F92E00400003F0E4FD8B
:10494000A16803F02AFF4FF0814A514603F030FF7F
:104950004A4F7837396803F0EFFD7DD8D8F8280042
:10496000B0F92E00400003F0CFFDA16803F015FF61
:10497000514603F01DFFCAE003F046FC03F0A8FD1A
:1049800000B204902946A06803F03EFC03F0A0FDAD
:104990000FFA80F84FF07E573946606803F008FF41
:1049A00003F096FD05B23946206803F001FF03F0DD
:1049B0008FFD00B2CDF800A042462946049BFFF7C8
:1049C00041FDE06803F084FD0FFA80F8A06803F071
:1049D0007FFD05B2606803F07BFD07B2206803F03D
:1049E00077FD00B243462A463946B5E6C06927A29C
:1049F0003146B0F900304846FDF73DFA03F084FD3A
:104A00000546B86A0390B0F91200400003F07CFD3F
:104A1000A16803F0C2FE294603F0CAFE4FF08141AF
:104A200003F0C6FE03F054FD05B2039817A2314609
:104A3000C069B0F900304846FDF71DFA0490BF6A1E
:104A4000B7F9140003F060FD6168029103F0DCFB2C
:104A500003F03EFD01B200E058E00191049803F03C
:104A600053FD0490B7F9120012E000009C000020F2
:104A70000000F04100007042000020C264250020C8
:104A80000000084225352E32660000002533640000
:104A900003F03AFD0090B7F9000003F035FD2168FE
:104AA000039103F0B1FB4FF07E5103F081FE0099BA
:104AB00003F07EFE049903F07BFE03F009FD02B2D1
:104AC0000092E06803F004FD00B20790A06803F0D4
:104AD000FFFC00B20C90029803F0FAFC00B20B90BD
:104AE000039803F0F5FCF96900B2B1F90010AFF2D8
:104AF0006407F2B209F0FF03CDE90232CDE9047197
:104B0000DDE90B12079B00F026FAD9E6386803F0BE
:104B1000DFFC00B20290D8F82870B7F92C0003F03F
:104B2000F3FC0590B7F93000824603F0EDFC0090ED
:104B3000E168606803F068FB009903F039FE0599AD
:104B400003F036FE4FF0804103F05EFB03F0C0FC43
:104B50000FFA80FBB7F92E0003F0D6FC216803F0B2
:104B600053FB4FF0804103F04FFB03F0B1FC07B261
:104B700001200090AAF1040003B259463846029A77
:104B8000FFF760FCD8F82810CA68002A64D0C24633
:104B900031464846FDF76FF90746A8421CDD2169FA
:104BA000206803F061FC17D16169606803F05CFC68
:104BB00012D1A169A06803F057FC0DD1E169E0684A
:104BC00003F052FC08D1DAF828802649D8F83400DE
:104BD00003F0EEFDC8F83400784203F095FCDAF8F3
:104BE00028105746496B03F0A7FD04D2681C03F058
:104BF0008BFCB96A4863BF6AB7F9140003F084FC00
:104C0000616803F001FB03F063FC0FFA80F8B7F969
:104C1000120003F079FC216803F0F6FA8346796B01
:104C200003F0F2FA03F054FC0FFA80FAE06803F0A4
:104C30004FFC04B2584603F04BFCFA68F1B209F09D
:104C4000FF03CDE90231CDE900A8049200B223466A
:104C50002A46414600F07FF911B0BDE8F08FC3F855
:104C600028A0F9E7CDCC4C3D70B5002319460020B3
:104C700000F038FA5B1CDBB2082BF7D3454D4FF43C
:104C80008074002221462846FDF79DFE6420FDF732
:104C900093FD012221462846FDF795FE0021AE2016
:104CA00000F0E0F90021084600F0DCF900211020B6
:104CB00000F0D8F90021402000F0D4F90021812033
:104CC00000F0D0F90021CF2000F0CCF90021A12084
:104CD00000F0C8F90021C82000F0C4F90021A62086
:104CE00000F0C0F90021A82000F0BCF900213F200D
:104CF00000F0B8F90021D32000F0B4F900210846F3
:104D000000F0B0F90021D52000F0ACF9002180209E
:104D100000F0A8F90021D92000F0A4F90021F12029
:104D200000F0A0F90021DA2000F09CF90021122007
:104D300000F098F90021DB2000F094F900214020D8
:104D400000F090F90021202000F08CF900210220D1
:104D500000F088F900218D2000F084F90021142052
:104D600000F080F90021A42000F07CF90021A620A9
:104D700000F078F90021AF2000F074F90020FFF76F
:104D80008DF90120FFF728F9BDE870401420FDF7E8
:104D900013BD0000000801402DE9F0411C461546F6
:104DA000884602F088FF06460F46404602F083FF21
:104DB00032463B4602F0E2F90C4A0D4B02F0F4FD9C
:104DC00000220C4B02F0CAFF02F046FF00B2A542DF
:104DD00004DAA84207DBA04202DD04E0A842FADBC5
:104DE0000120BDE8F0810020FBE700001F85EB51AA
:104DF000B81E0940008066402DE9F047494D4A4CF5
:104E00002F1DA878B870E878F8702878387068781E
:104E1000787010212046FDF7D1FD28702021204612
:104E2000FDF7CCFD687008212046FDF7C7FDA8708E
:104E300004212046FDF7C2FDE870BA780121002662
:104E4000A5F11A040AB9AA7812B16681A68113E005
:104E50006289521C12B26281282A0EDBA3895B1C74
:104E60001BB2A3818C2A01DB012200E007229A42B7
:104E700002DC2171A68100E02671FA78B84602B9F9
:104E800010B1E681268213E0E289521C12B2E2815F
:104E9000282A0EDB238A5B1C1BB223828C2A01DBAF
:104EA000012200E007229A4202DC6171268200E0C2
:104EB0006671A978814201D126716671606A0069C4
:104EC000FDF7EAFA8146606AB0F93A70FDF760FAD8
:104ED000384401B2A87898F80230984201D00128ED
:104EE00001D0207908B1491E09B2E87898F803206A
:104EF000904201D0012801D0607908B1491C09B263
:104F0000CA1B304662F31F40A9F10102914201DD44
:104F1000002102E0002900DA11B2C91B61F30F0081
:104F2000BDE8F0878A000020000801400FB470B58A
:104F3000A0B014460D46064628AA68462799FBF7F6
:104F400005FA23466A462946304600F0CAFB20B0DF
:104F500070BC5DF814FB2DE9F04FA5B083462EA878
:104F6000914690E8F0008A46984633AA05A83299FF
:104F7000FBF7ECF90DF1080C05A88CE8C1004346DD
:104F80004A4651465846CDE9004500F06FFB25B032
:104F9000BDE8F08F70B50E4C002001252070A1787F
:104FA000A1B92071A570E070002269020948FDF7DF
:104FB0000AFD002229030848FDF705FD0748E178AE
:104FC000032200EB81010648FEF712FB257070BD3D
:104FD0005000002000080140000C01408424002003
:104FE0004C1A0020F0B5002A38DD002B36DD7F2872
:104FF00034DC3F2932DC8418802C02DDC0F18002D1
:1050000012B2CC18402C02DDC1F140031BB284184F
:1050100024D4CB1822D4002800DA002000291BDA7F
:10502000002119E0024613E0CD1701EB5577FE1081
:105030000B4D27F0070705EBC6151544A1EB070C30
:105040002E78012707FA0CF77E40521C2E7012B200
:105050009442E9DC491C09B28B42E3DCF0BD00005C
:10506000842000202DE9F341134E0C464FF40075C7
:10507000002229463046FDF7A6FC20000F4C4FF4D5
:10508000805701D0012200E0002239462046FDF77A
:105090009AFCFF23012269460948FEF7F5F901222F
:1050A00039462046FDF78FFC012229463046FDF7A0
:1050B0008AFCBDE8FC81000000080140000C0140B2
:1050C0004C1A0020064948704A79904206D048712F
:1050D00008B1002000E00120FEF7D8BF70470000B3
:1050E00050000020054801F1B00200EB81000021D2
:1050F000427081701021C17070470000842400202C
:1051000008B5082B10D0062B17D0072B21D00A2B5F
:105110001ED1154BC2EB021203EB4202A2F57072D4
:10512000142300920A2211E0104B03EB0212A2F5A5
:10513000007210230092082208E00D4B02EB42029D
:1051400003EB4202C03A00920823062200F050F915
:1051500008BD084BC2EBC20203EB4202A2F5E072AB
:105160000C2300920722F1E7BC890008DE940008B6
:1051700000A00008CE9A0008F0B585B0DDE90C5417
:10518000DDE90A67082C11D0062C19D0072C27D08E
:105190000A2C23D1C5EB0514174D05EB4404A4F5E7
:1051A00070748DE81F0014230A2213E0134C04EBE3
:1051B0000514A4F500748DE81F001023082209E0EF
:1051C00005EB45040E4D05EB4404C03C8DE81F0083
:1051D000082306223946304600F0B0F905B0F0BD8C
:1051E000C5EBC504074D05EB4404A4F5E0748DE858
:1051F0001F000C230722EDE7BC890008DE9400089D
:1052000000A00008CE9A00082DE9FF4F87B00025C6
:10521000DDE9169A9B462C46059581E005A948557F
:105220006D1CEDB2022D79D30025BAF1080F09D01B
:10523000BAF10C0F0AD0BAF1100F0BD0BAF1140F5B
:105240000CD06BE0DFF89481002612E0DFF890814B
:1052500000263AE0DFF88C81002670E0DFF88881D4
:10526000002698E0384605A9FBF72AFA68B1761CB3
:10527000F6B206EB460000EBC60101EB080007465C
:105280005AA1FBF71DFA0028ECD106EB460000EB13
:10529000C60101EB0803DDE90812DB1C01A8049339
:1052A00080E8060807980090601C4108149800EBFD
:1052B000C1000838082300B21A462CE0384605A978
:1052C000FBF7FEF968B1761CF6B206EBC60000EB00
:1052D000400101EB0800074644A1FBF7F1F9002863
:1052E000ECD106EBC60000EB4001DDE9082301EB41
:1052F0000800C01CCDE903B0CDE901230798009058
:10530000601C400800EB4001149800EB81000C3851
:105310000C2300B21A46159900F010F9641CE4B28F
:1053200019F8040000287FF479AF0BB0BDE8F08FC6
:10533000384605A9FBF7C4F968B1761CF6B2C6EB8E
:10534000C60000EB800101EB0800074627A1FBF730
:10535000B7F90028ECD1C6EBC60000EB8001DDE90F
:10536000082301EB0800C01CCDE903B0CDE90123FF
:1053700007980090601C4108149800EB0110103849
:10538000102300B21A46C6E7384605A9FBF798F97C
:1053900058B1761CF6B2C6EB861101EB0800074641
:1053A00012A1FBF78DF90028EED1C6EB8611DDE9DD
:1053B000082301EB0800C01CCDE903B0CDE90123AF
:1053C00007980090601C400800EB8001149800EBE7
:1053D00081001438142300B21A469CE75CC600080A
:1053E0009ABB000806AF00083AA2000800000000BF
:1053F0002DE9FC4F1F46DDF82CA014000D46064693
:105400007BD0002F79D07F2E77DC3F2D75DC002EEE
:1054100000DA0020C0B2002D00DA002101F0FF0CFC
:1054200031194A1E7F2A01DD7F2100E0491ECAB2E0
:10543000E9194B1E3F2B01DD3F2100E0491EC9B297
:10544000A1EB0C03121A6146521C5B1CFEF7DEFD39
:105450007F1EF917002007EB51720121DFF8D89069
:1054600001EBE20743E000213DE0721812B205EBC8
:10547000C0031BB2802A34D2002B32DB3F2B30DC3E
:105480004FEAE37C03EB5C7E4FEAEE0809EBC81CB5
:105490000CEB020B00FB04F29BF800C00AEB0108C6
:1054A000CDE9008212F808202EF00708A3EB080EC1
:1054B00002FA0EF24CEA020C08335A468BF800C08E
:1054C0003F2B0EDC02F18008DDE900C29BF8803042
:1054D00012F80C20CEF1080C22FA0CF2134388F8D3
:1054E0000030491CC9B2A142BFD3401CC0B28742A0
:1054F000B9DC002D1EDA00201AE01BE031180AB2D8
:10550000802A13D26942CF1701EB5771CF100AEBF3
:10551000000307FB043321F007011B7829444942AB
:1055200019F80270CB403B4309F80230401CC0B26E
:10553000A042E3D3BDE8FC8F842000202DE9FF4F7B
:105540008946DDE90D16DDE90F4C002A7ED0002BDF
:105550007CD0002C7AD0BCF1000F77D07F2875DC8E
:105560007F297FDCB9F13F0F7CDC3F2E7ADC88425B
:1055700001DA0D4600E005460C44AE468718651E6C
:10558000791E8D4201DA611E00E0791E0DB2494696
:10559000B14501DA374600E00F4606EB0C0409EB93
:1055A000030C661EACF101018E4201DA314601E0C6
:1055B000ACF1010109B27F2D00DD7F2500953F2967
:1055C00000DD3F218B46AE454CDC5F454ADC0021C7
:1055D0005B1EDC1703EB5473039340E0002439E0B7
:1055E0000319DEB2764533DB009B9E4230DC00239C
:1055F00009EBC10A0AEB0305EDB2BD4222DB5D45B2
:1056000020DC4FEAD50C05F007050295DDF8448053
:1056100001FB02F5A04415F8088001259D4015EA1C
:10562000080F0FD0104D4FF0010805EBCC15019578
:1056300015F806C0029D08FA05F8019D4CEA080C11
:1056400005F806C05B1CDBB2082B00E00AE0D1D3F2
:10565000641CE4B29442C3DB491C039BC9B2B1EBA6
:10566000E30FBBDDBDE8FF8F842000202DE9FF4F55
:1056700085B09A46DDE91447DDE9125893460DF1ED
:105680001009169E27E0010618D500204946225C25
:105690000A54401CC0B20228F9D3CDE90217CDE963
:1056A000005800208DF81200DDE9050153465A46E6
:1056B000FFF7AAFDE81905B2A41C0CE0CDE902062B
:1056C000CDE90058DDE9050153465A46FFF754FD80
:1056D000A81905B2641C20780028D4D109B0BDE80F
:1056E000F08F2DE9F0411E461546884607460024F6
:1056F00008E004FB067000B233464146FFF700FDA8
:10570000641CE4B22A5D002AF3D1BDE8F081FCF705
:105710009FBB000070B5044615480121002681702A
:1057200014490E600680B4F9000002F0EDFE114D40
:10573000783DA861B4F9020002F0E6FEE861B4F930
:105740000000C0F1800000EBD070401002F0DCFEE1
:105750002861B4F90200C0F1400000EBD0704010A5
:1057600002F0D2FE6861024866632C38846270BD24
:105770009C000020DC2500202DE9F04F85B01C4660
:10578000DDF8389017460D46060002D5104407B2E2
:105790000026002D02DA581804B20025F0198028DE
:1057A00002DDC6F1800007B22819402802DDC5F1EC
:1057B000400004B2002F43DD002C41DDA9F10100BF
:1057C00005283DD2142220496846FAF720FFF01937
:1057D00002B2281903B22C4630E0E01704EB5070F7
:1057E0004FEAE00B20F00700201A0121814001F070
:1057F000FF0A30461EE0811B01EBD17727F001073D
:10580000CF1B611B01EBD17C2CF0010CA1EB0C0137
:10581000E84608EB890C0CEB4101394411F8041CF3
:1058200031B10A4901EBCB110F5C27EA0A070F548B
:10583000401C00B29042DEDB641C24B29C42CCDBF4
:1058400005B0BDE8F08F000094D00008842000204F
:1058500010B50446FFF708FA0748FDF7FDFF01F011
:10586000ECFAFEF7CBF9FCF795FD04484462BDE87D
:105870001040FCF78DBC0000E81A002070000020EA
:105880002DE9F047FCF7EEFDFCF7E2FD924CDFF866
:1058900044A24FF0000904F12C08002870D0FCF756
:1058A000F1FD0028FAD0FFF7A7FA054698F80200A4
:1058B00001282ED12E1401D0A8F80090A06AD0E9BA
:1058C0000610FCF70DFE411C21D00128304626D0E1
:1058D00002F01AFEA66A316A02F062FEB669316809
:1058E00002F092FC3060A16A496A02F025FE03D200
:1058F000A06A416A80690160A06A816A8069006863
:1059000002F01AFF03D2A06A816A8069016069F31C
:105910000F052DB2002D54DA00266F424FE002F041
:10592000F3FDA76A396A02F03BFEFF690646B7F944
:10593000000002F0E9FD314602F066FC02F0C8FD0D
:1059400000B23880A66A02F0DFFD716A02F0F4FD51
:1059500005D2A66A706A02F0BBFDF1690880A66AEA
:10596000F069B0F9000002F0CFFDB16A02F0E4FE88
:10597000CDD2A66AB06A02F0ABFDF1690880C6E735
:105980006CE0606A017881B9818F19B9408F40B1AC
:10599000FEF766FA616AB1F93C00002801DD401E9D
:1059A0008887606A418F491E4187606A01780129B2
:1059B00004D1418F491E4187FEF77EFA761CB7421B
:1059C000DFDC002D2FDD00262BE0606A0078F0B9C7
:1059D000FCF712FD626A401EB2F93C10884209D100
:1059E0001069FCF759FD616AB1F93A10884201D09B
:1059F000FEF778FAFCF700FD616A401EB1F93C2021
:105A0000904201DD521C8A87488F401C4887606A9B
:105A10000178012904D1418F491C4187FEF736FAEC
:105A2000761CB542D1DC2C4D1A352F1D687879785B
:105A300088420DD001280BD198F80200464670B17B
:105A4000A06A5146406802F0ABFD02F041FD308093
:105A50002878397888420AD0012803D007E0FCF77B
:105A6000F7F9F5E798F8021039B1A8F8009098F81E
:105A700002004546012815D017E0FCF78DFC606A4E
:105A80000C210269B0F93A0000EB800001EBC00084
:105A900010580028EBD0017811B100210170E6E721
:105AA0000121FBE72888401C2880A06A00280ED02E
:105AB0004068514602F074FD02F00AFDB5F900108D
:105AC00000B2884203DC85F80290A5F80090BDE89A
:105AD000F0870000000048427000002010B5002050
